:020000040000FA
:0400000091EF00F08C
:100008005982FACF03F0FBCF04F0D9CF05F0DACF4D
:1000180006F00E01BDAB13EF00F015EF00F020EF76
:1000280000F0C5AB1AEF00F01CEF00F020EF00F075
:10003800E2EC95F087EF00F0F2AC25EF00F027EF47
:1000480000F087EF00F0C0A92CEF00F02EEF00F0D1
:1000580045EF00F0C8A933EF00F035EF00F045EFA9
:1000680000F002D843EF00F00500FA6E0001F751E6
:10007800FD6EF851FE6EF951FF6EFA50120087EFCF
:1000880000F0C0AB4AEF00F04CEF00F063EF00F077
:10009800C8AB51EF00F053EF00F063EF00F002D867
:1000A80061EF00F00500FA6E0001F451FD6EF551A4
:1000B800FE6EF651FF6EFA50120087EF00F0BEA3F5
:1000C80068EF00F06AEF00F075EF00F0C6A36FEF7D
:1000D80000F071EF00F075EF00F0FDEC95F087EFA0
:1000E80000F0C1A17AEF00F07CEF00F087EF00F09C
:1000F800C9A181EF00F083EF00F087EF00F014EC66
:1001080095F087EF00F006C0DAFF05C0D9FF04C0FC
:0E011800FBFF03C0FAFF5992110031EF96F081
:10FEB20000FC25019E2501000000DE2E01902F018D
:10FEC2006A1E019E2F010000001E2901822001539B
:10FED2004E2C424C4532436C69636B0D0A00532D24
:10FEE2002C424C4532436C69636B0D0A00436F6EC2
:10FEF2006E506172616D00414F4B00434D440041B1
:10FF02000D0A0057430050432C303132333435361A
:10FF1200373031323334353637383941424344454C
:10FF22004638394142434445462C32302C30380D54
:10FF32000A0050432C3031323330313233343536CB
:10FF420037343536373839414238394142434445EE
:10FF520046434445462C30382C30380D0A00535560
:10FF6200572C303132333435363730313233343541
:10FF72003637383941424344454638394142434491
:10FF820045462C0050532C30303131323233333429
:10FF920034353536363737383839394141424243BC
:10FFA200434444454546460D0A00436F6E6E656301
:10FFB20074696F6E20456E640053522C32303030BB
:10FFC200303030300D0A0053532C30303030303066
:10FFD20030310D0A00436F6E6E65637465640053C1
:10FFE200462C310D0A00522C310D0A00505A0D0ACE
:0DFFF2000057560025303258000D0A00005F
:020000040001F9
:100000003150800B3A6E31503124406E30AE0BEFE0
:1000100080F00DEF80F00EEF80F040804050D8B4BB
:1000200014EF80F016EF80F029EF80F04028D8A47C
:100030001CEF80F01EEF80F026EF80F0000E2E6E99
:10004000000E2F6E000E306E000E316E308E31EFCE
:1000500080F0000E2E6E000E2F6E000E306E000E21
:10006000316E3550800B3A1A355035243B6E34AE24
:100070003CEF80F03EEF80F03FEF80F03B803B5064
:10008000D8B445EF80F047EF80F05AEF80F03B287E
:10009000D8A44DEF80F04FEF80F057EF80F0000EC6
:1000A000326E000E336E000E346E000E356E348EDE
:1000B00062EF80F0000E326E000E336E000E346E72
:1000C000000E356E3B50D8B468EF80F06AEF80F0D8
:1000D00072EF80F04050D8A470EF80F072EF80F0A3
:1000E0007CEF80F0000E2E6E000E2F6E000E306E34
:1000F000000E316E14EF82F034502E02F3CF45F033
:10010000F4CF46F045503C6E3D6A3E6A3F6A465029
:10011000416E426A436A446A33502F02F3CF45F07E
:10012000F4CF46F045503C26000E3D223E223F22B1
:1001300046504126000E42224322442232503002D1
:10014000F3CF45F0F4CF46F045503C26000E3D225B
:100150003E223F2246504126000E422243224422A4
:100160003EC03FF03DC03EF03CC03DF03C6A3250E6
:100170002F02F3CF45F0F4CF46F045503C264650D1
:100180003D22000E3E22000E3F2233502E02F3CFBE
:1001900045F0F4CF46F045503C2646503D22000E37
:1001A0003E22000E3F223EC03FF03DC03EF03CC02C
:1001B0003DF03C6A32502E02F3CF45F0F4CF46F0CA
:1001C00045503C2646503D22000E3E22000E3F2266
:1001D00034502F02F3CF45F0F4CF46F0455041267E
:1001E00046504222000E4322000E44223350300279
:1001F000F3CF45F0F4CF46F0455041264650422219
:10020000000E4322000E442234503002F3CF45F05A
:10021000F4CF46F04550366E4650376E386A396A2C
:1002200038C039F037C038F036C037F0366A36504B
:1002300041263750422238504322395044223CC094
:1002400036F03DC037F03EC038F03FC039F0190EEF
:100250002FEF81F0D8903932383237323632E82EEB
:100260002AEF81F03650412637504222385043223F
:10027000395044223EC03FF03DC03EF03CC03DF00E
:100280003C6A3B5040C036F0376A3626000E3722B3
:10029000820E3624456EFF0E3720466E65EF81F0E4
:1002A000D89041364236433644363FAE5AEF81F05D
:1002B0005CEF81F05DEF81F04180D8903C363D36B7
:1002C0003E363F364506D8A0460643AE6AEF81F07B
:1002D0006CEF81F050EF81F0000E3B6E3FAE73EF9C
:1002E00081F075EF81F099EF81F0FF0E3C14366ECE
:1002F000FF0E3D14376EFF0E3E14386E7F0E3F1416
:10030000396E3650371038103910D8B48AEF81F072
:100310008CEF81F090EF81F0010E3B6E99EF81F050
:1003200041A095EF81F097EF81F099EF81F08CEF8C
:1003300081F03B50D8B49FEF81F0A1EF81F0C5EF81
:1003400081F0010E4126000E42224322442244A0A5
:10035000ACEF81F0AEEF81F0C5EF81F041C036F037
:1003600042C037F043C038F044C039F03934393234
:1003700038323732363236C041F037C042F038C0FA
:1003800043F039C044F0454A462A46BED0EF81F0DA
:10039000465008E14528D8A0D0EF81F0D2EF81F097
:1003A000DCEF81F0000E416E000E426E800E436E57
:1003B0007F0E446E0AEF82F046BEE9EF81F04650B0
:1003C00006E14504D8B0E7EF81F0E9EF81F0F5EF01
:1003D00081F0000E416E000E426E000E436E000E64
:1003E000446E000E3A6E0AEF82F045C040F0FF0EF8
:1003F0004116FF0E42167F0E4316000E441640A013
:1004000004EF82F006EF82F007EF82F0438ED8907F
:100410004030446E3A50441241C02EF042C02FF09A
:1004200043C030F044C031F01200000E0001DF6F15
:10043000BC0EF66EFE0EF76E000EF86E02D82EEFB2
:1004400082F00500FA6E0900F550FD6E0900F550C6
:10045000FE6E0900F550FF6EFA5012000009D8B484
:1004600034EF82F036EF82F0B3EF82F0CEEC90F012
:1004700000018951D8A43FEF82F041EF82F058EF9C
:1004800082F0000E076E010E086ED70E096EFF0E89
:100490000A6E55EC91F007500810D8B452EF82F074
:1004A00055EF82F0010E56EF82F0000E0001896FC9
:1004B0008951D8B45EEF82F060EF82F0B3EF82F042
:1004C000000E076E010E086EAC0E096EFF0E0A6E6E
:1004D00055EC91F007500810D8B471EF82F074EF2A
:1004E00082F0010E75EF82F0000E0001DF6F000E4A
:1004F000076E010E086EF30E096EFF0E0A6E000EF7
:100500000C6E020E0B6EFCEC8DF007500810D8B488
:100510008CEF82F08FEF82F0010E90EF82F0000EF0
:100520000001DE6FDF51D8B498EF82F09AEF82F0CD
:10053000A7EF82F0E10EFB6FBA0EFA6FF2EC97F0C4
:100540002CEC98F0000E0001896FB3EF82F0DE51C1
:10055000D8B4ADEF82F0AFEF82F0B3EF82F097EC5A
:1005600087F0B3EF82F000018951D8B4BAEF82F07E
:10057000BCEF82F01DEF83F08851D8B4C2EF82F057
:10058000C4EF82F01DEF83F0000E886F8751D8B45E
:10059000CCEF82F0CEEF82F0D6EF82F0B0EC97F0A5
:1005A00007C0E0F008C0E1F0DCEF82F091EC97F0DA
:1005B00007C0E0F008C0E1F0000E326E000E336EAE
:1005C000C80E346E420E356E000E196E000E1A6E95
:1005D000290E1B6E440E1C6EE0C007F0E1C008F04F
:1005E000096A0A6A000EA4EC8AF007C015F008C078
:1005F00016F009C017F00AC018F0CAEC85F015C053
:100600002EF016C02FF017C030F018C031F000ECFB
:1006100080F02EC047F02FC048F030C049F031C004
:100620004AF003EC8DF047C0E0F048C0E1F0E0C0D4
:10063000D6F0E1C0D7F091EC91F000018951D8B427
:1006400024EF83F026EF83F061EF83F08451D8B478
:100650002CEF83F02EEF83F061EF83F07F98840519
:10066000D8A435EF83F037EF83F03FEF83F0070E28
:10067000D76FD00ED66F91EC91F061EF83F0030E3F
:100680008419D8A446EF83F048EF83F050EF83F04D
:100690000B0ED76FB80ED66F91EC91F061EF83F02F
:1006A000050E8419D8A457EF83F059EF83F061EF5A
:1006B00083F00F0ED76FA00ED66F91EC91F061EF23
:1006C00083F000018951D8A468EF83F06AEF83F0CA
:1006D000B1EF83F08851D8B470EF83F072EF83F0FC
:1006E000B1EF83F0000E886F8751D8B47AEF83F0B2
:1006F0007CEF83F084EF83F0B0EC97F007C0E0F07C
:1007000008C0E1F08AEF83F091EC97F007C0E0F0C9
:1007100008C0E1F02EEC98F0000E0CEC98F010EC14
:1007200098F0000E0001866FE0C016F0E1C017F0EF
:10073000CDEC91F0A6EC97F0F3EC94F0000E0F6E78
:10074000000E0E6E000E86EC8DF00EC080F00FC015
:1007500081F080C00BF081C00CF014EC97F030EC0D
:1007600098F000018551D8B4B8EF83F0BAEF83F068
:10077000F3EF83F0000E856F8651D8A4C2EF83F0AB
:10078000C4EF83F0CBEF83F09CEC97F088EC96F00D
:10079000010E0001866F54EC93F00009D8B4D3EF3A
:1007A00083F0D5EF83F0F3EF83F010EC98F0000EB8
:1007B0000F6E000E0E6E000E86EC8DF00EC082F0F5
:1007C0000FC083F000018251801909E18351811922
:1007D000D8B4EDEF83F0EFEF83F0F1EF83F0050E87
:1007E000846F000E866F12004DC0D9FF4EC0DAFF35
:1007F000DECFF6FFDDCFF7FF000EF86E0800F550F4
:10080000250AD8A406EF84F008EF84F0ACEF85F059
:100810004DC0D9FF4EC0DAFFDE2A000EDD22000EE9
:1008200000017B6F000E7A6F7AC07EF07BC07FF094
:100830007C697D69000EBD6F000EBC6F68EF84F0AF
:100840007E814DC0D9FF4EC0DAFFDE2A000EDD22C8
:1008500068EF84F07E8321EF84F07E8521EF84F0C1
:100860007E8721EF84F07E8921EF84F0000EBD6F3A
:10087000010EBC6F68EF84F04DC0D9FF4EC0DAFFA7
:10088000DECFF6FFDDCFF7FF000EF86E0800F55063
:10089000AF6FB06BB051000AD8B451EF84F036EFAF
:1008A00084F0AF51200AD8B430EF84F0030AD8B4F2
:1008B00033EF84F0080AD8B42DEF84F0060AD8B4D8
:1008C00020EF84F01D0AD8B42AEF84F036EF84F0CC
:1008D000BC51BD11D8B46FEF84F071EF84F03CEFE0
:1008E00084F07EA176EF84F078EF84F079EF84F0E5
:1008F0007E934DC0D9FF4EC0DAFFDECFF6FFDDCFCD
:10090000F7FF000EF86E0800F5502A0AD8A48BEF06
:1009100084F08DEF84F0B6EF84F04DC0D9FF4EC067
:10092000DAFFDE2A000EDD224FC0D9FF50C0DAFF09
:10093000DFCFAFF0020EDE26DFCFB0F0000EDD22FB
:10094000AFC0D9FFB0C0DAFFDECF7AF0DDCF7BF0E9
:100950007BBFAFEF84F0ADEF84F0FCEF84F07E81DD
:100960007A6D7B1FD8B07B2BFCEF84F04DC0D9FF94
:100970004EC0DAFFDECF0EF0DDCF0FF07EEC8BF055
:100980000EC07AF00FC07BF0CDEF84F04DC0D9FFE0
:100990004EC0DAFFDE2A000EDD22D00E0001AF6F5E
:1009A000FF0EB06F4DC0D9FF4EC0DAFFDECFF6FFAD
:1009B000DDCFF7FF000EF86E0800F550B16FB26B97
:1009C000AF51B127B051B223B2510AE10A0EB15D65
:1009D000D8A0EDEF84F0F0EF84F0010EF1EF84F099
:1009E000000EBE6FBF6BBE51BF11D8A4FAEF84F0EA
:1009F000FCEF84F0C6EF84F04DC0D9FF4EC0DAFFA3
:100A0000DECFF6FFDDCFF7FF000EF86E0800F550E1
:100A1000780AD8B40EEF85F010EF85F024EF85F05A
:100A20004DC0D9FF4EC0DAFFDECFF6FFDDCFF7FFB6
:100A3000000EF86E0800F550580AD8A422EF85F091
:100A400024EF85F074EF85F04DC0D9FF4EC0DAFF7A
:100A5000DECFF6FFDDCFF7FF000EF86E0800F5CF12
:100A6000BBF04DC0D9FF4EC0DAFFDE2A000EDD22FA
:100A70004FC0D9FF50C0DAFFDFCFAFF0020EDE2645
:100A8000DFCFB0F0000EDD22AFC0D9FFB0C0DAFF7B
:100A9000DECFB1F0DDCFB2F0B1C0B3F0B2C0B4F090
:100AA000B56BB66BB76BB86BB96BBA6B4BC024F058
:100AB0004CC025F0B3C026F0B4C027F0B5C028F074
:100AC000B6C029F0B7C02AF0B8C02BF0B9C02CF0DE
:100AD000BAC02DF0BBC02EF038EC89F024C04BF02A
:100AE00025C04CF0C9EF85F04DC0D9FF4EC0DAFFEC
:100AF000DECFF6FFDDCFF7FF000EF86E0800F550F1
:100B0000250AD8A486EF85F088EF85F09FEF85F061
:100B10004DC0D9FF4EC0DAFFDE2A000EDD22000EE6
:100B20000A6E250E096E4BC00BF04CC00CF06DEC3C
:100B30008EF0000E4C6E010E4B6EC9EF85F04DC06D
:100B4000D9FF4EC0DAFFDE2A000EDD22000E4C6E09
:100B5000000E4B6EC9EF85F04DC0D9FF4EC0DAFFD5
:100B6000DECFF6FFDDCFF7FF000EF86E0800F55080
:100B7000096E0A6A4BC00BF04CC00CF06DEC8EF0A5
:100B80004DC0D9FF4EC0DAFFDE2A000EDD2299EFFC
:100B900085F012001850800B256E185018242C6E0A
:100BA00017AED5EF85F0D7EF85F0D8EF85F02C8024
:100BB0002C50D8B4DEEF85F0E0EF85F0F5EF85F04E
:100BC0002C28D8A4E6EF85F0E8EF85F0F0EF85F06B
:100BD000000E156E000E166E000E176E000E186ECB
:100BE000178E000E186EFDEF85F0000E156E000ECC
:100BF000166E000E176E000E186E1C50800B251A14
:100C00001C501C242D6E1BAE08EF86F00AEF86F0F8
:100C10000BEF86F02D802D50D8B411EF86F013EF36
:100C200086F028EF86F02D28D8A419EF86F01BEF68
:100C300086F023EF86F0000E196E000E1A6E000E7D
:100C40001B6E000E1C6E1B8E000E1C6E30EF86F0AD
:100C5000000E196E000E1A6E000E1B6E000E1C6E3A
:100C600019501A101B101C10D8A439EF86F03BEF56
:100C700086F053EF86F0000E156E000E166E000E15
:100C8000176E000E186E800E17127F0E1812255068
:100C9000181215C015F016C016F017C017F018C0BE
:100CA00018F096EF87F02C50D8A459EF86F05BEF40
:100CB00086F065EF86F0000E156E000E166E000EC3
:100CC000176E000E186E96EF87F02D502CC01DF099
:100CD0001E6A1D5E000E1E5A7F0E1D24266E000E1B
:100CE0001E20276E15C021F016C022F017C023F079
:100CF00018C024F0000E156E000E166E000E176E52
:100D0000000E186E000E286E000E296E000E2A6E60
:100D1000000E2B6E000E2D6EC6EF86F02D50D8B44F
:100D200094EF86F096EF86F0ADEF86F0D8902136FE
:100D3000223623362436D89015361636173618360E
:100D40002BAEA5EF86F0A7EF86F0A8EF86F0158012
:100D5000D890283629362A362B361950215C1A505D
:100D600022581B5023581C502458D8A0BAEF86F0A4
:100D7000BCEF86F0C5EF86F02B8C1950215E1A501F
:100D8000225A1B50235A1C50245A2D2A190E2D6406
:100D9000CCEF86F0CEEF86F08EEF86F02150221059
:100DA00023102410D8B4D7EF86F0D9EF86F0F1EFF6
:100DB00086F02880F1EF86F0D89015361636173673
:100DC00018362BAEE6EF86F0E8EF86F0E9EF86F016
:100DD0001580D890283629362A362B362606D8A0F4
:100DE000270617AEF6EF86F0F8EF86F0DCEF86F018
:100DF000000E2D6E2BAEFFEF86F001EF87F025EF92
:100E000087F0FF0E28141D6EFF0E29141E6EFF0EB4
:100E10002A141F6E7F0E2B14206E1D501E101F10E3
:100E20002010D8B416EF87F018EF87F01CEF87F08A
:100E3000010E2D6E25EF87F015A021EF87F023EF2F
:100E400087F025EF87F018EF87F02D50D8B42BEFFF
:100E500087F02DEF87F051EF87F0010E1526000E79
:100E600016221722182218A038EF87F03AEF87F0E1
:100E700051EF87F015C01DF016C01EF017C01FF00F
:100E800018C020F0203420321F321E321D321DC007
:100E900015F01EC016F01FC017F020C018F0264A2B
:100EA000272A27BE5CEF87F0275008E12628D8A024
:100EB0005CEF87F05EEF87F069EF87F0000E276E3A
:100EC0002668000E156E000E166E000E176E000ED0
:100ED000186E27BE76EF87F0275006E12604D8B0BB
:100EE00074EF87F076EF87F084EF87F0000E276EBF
:100EF000000E266E000E156E000E166E000E176E9A
:100F0000000E186E000E256E26C02CF02CA08BEF64
:100F100087F08DEF87F090EF87F0178E91EF87F0D5
:100F2000179ED8902C30186E47EF86F0120086EC92
:100F300097F00FC044F110C045F153C046F154C0C2
:100F400047F11CEF89F02CEC98F037EF89F02AEC90
:100F500098F015EF88F046C107F047C108F0096A1C
:100F60000A6A9DEC96F007C040F108C041F101010A
:100F7000402908E14129D8B4C0EF87F0C2EF87F0DB
:100F800010EF88F0000E326E000E336EC80E346E15
:100F9000420E356E000E196E000E1A6E290E1B6E73
:100FA000440E1C6E40C107F041C108F0096A0A6A8C
:100FB000000EA4EC8AF007C015F008C016F009C0B6
:100FC00017F00AC018F0CAEC85F015C02EF016C054
:100FD0002FF017C030F018C031F000EC80F02EC0B8
:100FE00047F02FC048F030C049F031C04AF003EC60
:100FF0008DF047C040F148C041F140C1D6F041C139
:10100000D7F091EC91F0090E0001DD6F1E0EDC6F40
:10101000E40EE82EFED7DC2FFCD7DD2FFAD700F048
:10102000020E01014627000E472301014629410E09
:101030004759D8A01EEF88F020EF88F0ABEF87F07B
:10104000400E476F000E466F90EF88F046C107F0E4
:1010500047C108F0096A0A6A9DEC96F007C042F1A0
:1010600008C043F10101422908E14329D8B43BEF0C
:1010700088F03DEF88F08BEF88F0000E326E000EA6
:10108000336EC80E346E420E356E000E196E000EB1
:101090001A6E290E1B6E440E1C6E42C107F043C12E
:1010A00008F0096A0A6A000EA4EC8AF007C015F07D
:1010B00008C016F009C017F00AC018F0CAEC85F095
:1010C00015C02EF016C02FF017C030F018C031F048
:1010D00000EC80F02EC047F02FC048F030C049F03F
:1010E00031C04AF003EC8DF047C042F148C043F1F3
:1010F00042C1D6F043C1D7F091EC91F0090E000146
:10110000DD6F1E0EDC6FE40EE82EFED7DC2FFCD761
:10111000DD2FFAD700F0020E01014627000E47230B
:101120005350465D54504759D8A099EF88F09BEF33
:1011300088F026EF88F037EF89F001014551000172
:10114000DC6FDD6BDD51000AD8B4A9EF88F037EF12
:1011500089F0DC51010AD8B4A3EF87F0030AD8B4B0
:10116000A7EF87F037EF89F0F9EC97F0010E000157
:10117000876F37EF89F008EC98F0000E0001876F59
:1011800037EF89F0010145510001DC6FDD6BDD5166
:10119000000AD8B4CEEF88F037EF89F0DC51010AAD
:1011A000D8B4B4EF88F0030AD8B4BBEF88F037EFB7
:1011B00089F0F00EFB6FDD0EFA6FF2EC97F037EF6F
:1011C00089F0E10EFB6FBA0EFA6FDDEF88F0C30E07
:1011D000FB6F740EFA6FDDEF88F0860EFB6FE80E82
:1011E000FA6FDDEF88F00D0EFB6FD00EFA6FDDEFBA
:1011F00088F0010145510001DC6FDD6BDD51000A13
:10120000D8B405EF89F037EF89F0DC51010AD8B482
:10121000D9EF88F0030AD8B4E1EF88F0010AD8B416
:10122000E7EF88F0070AD8B4EDEF88F0010AD8B4E8
:10123000F3EF88F037EF89F0010144510001DC6FD2
:10124000DD6BDD51000AD8B428EF89F037EF89F063
:10125000DC51010AD8B49DEF88F0030AD8B4C2EF7C
:1012600088F0010AD8B4F9EF88F037EF89F012005E
:1012700000017DBF3EEF89F040EF89F041EF89F03A
:101280007E937DBF4EEF89F07D5106E17C05D8B09D
:101290004CEF89F04EEF89F054EF89F0000E3C6E70
:1012A000010E3B6E58EF89F07CC03BF07DC03CF0F6
:1012B0007AC03DF07BC03EF07EA961EF89F063EF1C
:1012C00089F067EF89F0FE0E3D26FF0E3E2226C014
:1012D0003FF027C040F028C041F029C042F02AC0AA
:1012E00043F02BC044F02CC045F02DC046F0000E5A
:1012F000486E1F0E476E000EAB6F32EF8AF0470646
:10130000D8A048060F0E3F14496E4A6A4ABE92EFB3
:1013100089F04A5009E10A0E495CD8A092EF89F0A1
:1013200094EF89F09CEF89F0570E4924496E000E26
:101330004A204A6EA2EF89F0300E4924496E000E11
:101340004A204A6EBF0E2F6EFF0E306E2E50316E49
:10135000326A2F5031263050322232500AE11A0EB2
:10136000315CD8A0B6EF89F0B9EF89F0010EBAEF81
:1013700089F0000E376E386A37503810D8B4C3EF92
:1013800089F0C5EF89F0F5EF89F09F0E2F6EFF0E03
:10139000306E200E4910316E000E4A10326E2F5002
:1013A00031263050322232500AE11A0E315CD8A078
:1013B000DCEF89F0DFEF89F0010EE0EF89F0000E3D
:1013C000396E3A6A39503A10D8B4E9EF89F0EBEF48
:1013D00089F0F5EF89F049C00DF04AC00EF0A0EC9D
:1013E00092F00DC049F00EC04AF08C0E4724D96E21
:1013F000000E4820DA6E49C0DFFF3B06D8A03C064D
:101400003D06D8A03E063FC02FF040C030F041C09E
:1014100031F042C032F043C033F044C034F045C034
:1014200035F046C036F0050E1FEF8AF0D890363200
:101430003532343233323232313230322F32E82EDA
:1014400016EF8AF02FC03FF030C040F031C041F0BD
:1014500032C042F033C043F034C044F035C045F0F0
:1014600036C046F048BE3EEF8AF0485009E1020E11
:10147000475CD8A03EEF8AF040EF8AF071EF8AF027
:101480003F50401041104210431044104510461088
:10149000D8A44DEF8AF04FEF8AF07FEF89F03CBE81
:1014A0005CEF8AF03C5006E13B04D8B05AEF8AF07A
:1014B0005CEF8AF07FEF89F03EBE67EF8AF03E5026
:1014C00008E13D04D8A067EF8AF069EF8AF071EF78
:1014D0008AF000017EB36FEF8AF071EF8AF07FEF40
:1014E00089F000017EA977EF8AF079EF8AF08FEF1B
:1014F0008AF04706D8A048068C0E4724D96E000E05
:101500004820DA6E2EC0DFFF4706D8A048068C0EB2
:101510004724D96E000E4820DA6E300EDF6E24C0EC
:1015200019F025C01AF08C0E47241B6E000E4820BF
:101530001C6E3DC01DF03EC01EF0D2EC8EF019C0F6
:1015400024F01AC025F012000F6E0F50D8B4ABEF84
:101550008AF0ADEF8AF0CFEF8AF00ABEB4EF8AF0DE
:10156000B2EF8AF0CFEF8AF007C00BF008C00CF0A2
:1015700009C00DF00AC00EF00B1E0C1E0D1E0E1E33
:101580000B2A000E0C220D220E220BC011F00CC0F3
:1015900012F00DC013F00EC014F0D7EF8AF007C0A0
:1015A00011F008C012F009C013F00AC014F007507F
:1015B000081009100A10D8A4E0EF8AF0E2EF8AF0D0
:1015C000ECEF8AF0000E076E000E086E000E096E3A
:1015D000000E0A6E7DEF8BF0960E106EF6EF8AF01D
:1015E000102AD8901432133212321132000E111414
:1015F0000B6E000E12140C6E000E13140D6EFE0E08
:1016000014140E6E0B500C100D100E10D8A40BEF0E
:101610008BF00DEF8BF0F0EF8AF01BEF8BF0102AC0
:10162000010E1126000E122213221422D890143219
:10163000133212321132000E11140B6E000E1214FE
:101640000C6E000E13140D6EFF0E14140E6E0B5064
:101650000C100D100E10D8A430EF8BF032EF8BF081
:101660000FEF8BF03AEF8BF01006D8901136123650
:101670001336143613BE3FEF8BF041EF8BF049EF7A
:101680008BF0020E106047EF8BF049EF8BF034EFD8
:101690008BF010B04EEF8BF050EF8BF051EF8BF0E2
:1016A000139ED890103210C00BF00C6A0D6A0E6AAF
:1016B0000BC00EF00D6A0C6A0B6A0B5011120C5025
:1016C00012120D5013120E5014120F50D8B46BEFAB
:1016D0008BF06DEF8BF075EF8BF00ABE74EF8BF033
:1016E00072EF8BF075EF8BF0148E11C007F012C003
:1016F00008F013C009F014C00AF01200000E1C6EAE
:10170000000E1B6E000E156E000E146E8AEF8BF02D
:101710000E4A0F2A010E1A6E0EC0F6FF0FC0F7FF19
:10172000000EF86E0800F550200AD8B49AEF8BF03E
:101730009CEF8BF0BBEF8BF0F70E106EFF0E116E6F
:101740000EC0F6FF0FC0F7FF000EF86E0800F55050
:10175000126E136A1050122611501322135009E111
:10176000050E125CD8A0B7EF8BF0B9EF8BF0BBEF92
:101770008BF0000E1A6E1AC016F0176A165017106A
:10178000D8A4C5EF8BF0C7EF8BF088EF8BF0D1EFCB
:101790008BF0000E156E010E146E0E4A0F2A0AEF22
:1017A0008CF00EC0F6FF0FC0F7FF000EF86E0800B9
:1017B000F550106E116A1150000AD8B4E2EF8BF0A8
:1017C0000AEF8CF010502B0AD8B4CDEF8BF0060A3C
:1017D000D8B4C9EF8BF00AEF8CF01BC007F01CC027
:1017E00008F0000E0A6E0A0E096E01EC97F00EC0AA
:1017F000F6FF0FC0F7FF000EF86E0800F550075E09
:10180000000E085A300E07241B6E000E08201C6EB6
:10181000CDEF8BF0D00E106EFF0E116E0EC0F6FFE6
:101820000FC0F7FF000EF86E0800F550126E136A35
:10183000105012261150132213500AE10A0E125CA6
:10184000D8A025EF8CF028EF8CF0010E29EF8CF05A
:10185000000E186E196A18501910D8A432EF8CF0C7
:1018600034EF8CF0EDEF8BF014501510D8A43BEF53
:101870008CF03DEF8CF04BEF8CF01BC010F01CC0D7
:1018800011F0101E111E104A112A10C00EF011C0C6
:101890000FF04FEF8CF01BC00EF01CC00FF01200C9
:1018A000086E300E0818D8A458EF8CF05AEF8CF060
:1018B0005CEF8CF0000E076E310E0818D8A463EFB1
:1018C0008CF065EF8CF067EF8CF0010E076E320E36
:1018D0000818D8A46EEF8CF070EF8CF072EF8CF0DB
:1018E000020E076E330E0818D8A479EF8CF07BEF48
:1018F0008CF07DEF8CF0030E076E340E0818D8A420
:1019000084EF8CF086EF8CF088EF8CF0040E076E7D
:10191000350E0818D8A48FEF8CF091EF8CF093EF70
:101920008CF0050E076E360E0818D8A49AEF8CF0CE
:101930009CEF8CF09EEF8CF0060E076E370E0818A9
:10194000D8A4A5EF8CF0A7EF8CF0A9EF8CF0070ED0
:10195000076E380E0818D8A4B0EF8CF0B2EF8CF0F8
:10196000B4EF8CF0080E076E390E0818D8A4BBEF40
:101970008CF0BDEF8CF0BFEF8CF0090E076E410EBE
:101980000818D8A4C6EF8CF0C8EF8CF0CAEF8CF022
:101990000A0E076E420E0818D8A4D1EF8CF0D3EFD0
:1019A0008CF0D5EF8CF00B0E076E430E0818D8A400
:1019B000DCEF8CF0DEEF8CF0E0EF8CF00C0E076EBD
:1019C000440E0818D8A4E7EF8CF0E9EF8CF0EBEFA9
:1019D0008CF00D0E076E450E0818D8A4F2EF8CF0AF
:1019E000F4EF8CF0F6EF8CF00E0E076E460E081832
:1019F000D8A4FDEF8CF0FFEF8CF001EF8DF00F0E0F
:101A0000076E0750120049344A34506E5050D8A423
:101A10000CEF8DF00EEF8DF018EF8DF0000E476E8D
:101A2000000E486E000E496E000E4A6E85EF8DF076
:101A300047C04BF048C04CF049C04DF04AC04EF092
:101A4000200E28EF8DF0D8904E324D324C324B3272
:101A5000E82E23EF8DF04B504F6E498EFF0E471648
:101A6000FF0E4816FF0E4916000E4A16960E505EDF
:101A700050BE3FEF8DF03DEF8DF055EF8DF05050A3
:101A8000800A970FD8B047EF8DF049EF8DF04BEFFC
:101A90008DF00EEF8DF0D8904A32493248324732FD
:101AA000503E4BEF8DF06DEF8DF01F0E50645BEFED
:101AB0008DF05DEF8DF065EF8DF00EEF8DF0D8902D
:101AC0004736483649364A3650065050D8A46BEF50
:101AD0008DF06DEF8DF05FEF8DF04F50D8B473EF58
:101AE0008DF075EF8DF07DEF8DF04A1E491E481E7A
:101AF000476C000E482249224A2247C047F048C09E
:101B000048F049C049F04AC04AF01200156E779C6F
:101B10000E01CC9D78500F0B106E103A78501018B3
:101B20000F0B1018786E080E0001AD659AEF8DF05E
:101B30009CEF8DF0A2EF8DF0000E706E000E6F6EB8
:101B4000A4EF8DF0000E6F6E778C0E01CCADABEF75
:101B50008DF0ADEF8DF0A5EF8DF0CC9D779CACC0F6
:101B600010F0FF0E1026103A785010180F0B1018B6
:101B7000786E7250106E7150166E10C017F0100E05
:101B80000001AD61C6EF8DF0C8EF8DF0E1EF8DF093
:101B9000ADC010F0010E116E000E126E102AD4EFBF
:101BA0008DF0D89011361236102ED1EF8DF0FF0E39
:101BB0001124136EFF0E1220146E135016161450BB
:101BC00017161550D8B4E7EF8DF0E9EF8DF0F3EF6D
:101BD0008DF016C007F017C008F004EC92F007C0B3
:101BE00016F008C017F00E50161A0F50171A16C02C
:101BF0000EF017C00FF0120007C00EF008C00FF073
:101C000009C010F00AC011F00B06D8A00C060B2872
:101C100006E10C28D8A40FEF8EF011EF8EF01EEF26
:101C20008EF0000E086E000E076E6CEF8EF00E4AFE
:101C30000F2A104A112A0B06D8A00C060EC0D9FF95
:101C40000FC0DAFFDF50D8B428EF8EF02AEF8EF005
:101C500059EF8EF010C0F6FF11C0F7FF000EF86EBE
:101C60000800F5500009D8B438EF8EF03AEF8EF046
:101C700059EF8EF00B500C10D8B441EF8EF043EFBB
:101C80008EF059EF8EF00EC0D9FF0FC0DAFFDF5093
:101C90000D6E10C0F6FF11C0F7FF000EF86E0800C1
:101CA000F5500D18D8B457EF8EF059EF8EF017EFAE
:101CB0008EF00EC0D9FF0FC0DAFFDF500D6E10C0DE
:101CC000F6FF11C0F7FF000EF86E0800F5500D5C2E
:101CD000076E086AD8A0080612000B500C10D8B482
:101CE00074EF8EF076EF8EF07FEF8EF00B500C10CD
:101CF000D8A47DEF8EF07FEF8EF084EF8EF0095048
:101D0000FFEC97F0D1EF8EF020EE04F00B50D926C7
:101D10000C50DA22DE50DE10D8B491EF8EF093EF43
:101D20008EF0AEEF8EF020EE04F00B50D9260C5062
:101D3000DA2210EE02F00B50E1260C50E222DE50C7
:101D4000E65CE650800A116EDE50800A1158D8B069
:101D5000ACEF8EF0AEEF8EF0D1EF8EF020EE02F011
:101D60000B50D9260C50DA22DECF0DF0DDCF0EF06D
:101D70000BC0D9FF0CC0DAFFDECF0FF0DDCF10F0C3
:101D80000D500F24D96E0E501020DA6E09C0DFFFFF
:101D900020EE02F00B50D9260C50DA22DE2A000E7B
:101DA000DD22120000017EA1D8EF8EF0DAEF8EF076
:101DB000E4EF8EF01BC012F01CC013F019C014F039
:101DC0001AC015F06DEC94F01EBEE9EF8EF0EBEF4B
:101DD0008EF0F1EF8EF01DC022F01EC023F0F5EF63
:101DE0008EF0000E236E000E226E000E216E000E8D
:101DF000206E07EF8FF0000E0A6E200E096E19C0DC
:101E00000BF01AC00CF06DEC8EF0204A212A225003
:101E1000205C2150800A1F6E2350800A1F58D8A0D2
:101E200014EF8FF016EF8FF0FBEF8EF000017EB114
:101E30001CEF8FF01EEF8FF028EF8FF01BC012F019
:101E40001CC013F019C014F01AC015F06DEC94F01A
:101E50001BC007F01CC008F0D0EC93F02250072400
:101E6000196E235008201A6E1200600E5624D96E87
:101E7000DA6A000EDA22000EDF6E9CA442EF8FF0C9
:101E800044EF8FF059EF8FF0600E5624D96EDA6A66
:101E9000000EDA220001DF8202D859EF8FF0050030
:101EA000FA6EF151FD6EF251FE6EF351FF6EFA5073
:101EB00012009CA25EEF8FF060EF8FF075EF8FF055
:101EC000600E5624D96EDA6A000EDA220001DF8431
:101ED00002D875EF8FF00500FA6EEE51FD6EEF51EE
:101EE000FE6EF051FF6EFA501200600E5624D96E4D
:101EF000DA6A000EDA22DF50D8B481EF8FF083EF78
:101F00008FF093EF8FF002D891EF8FF00500FA6E0B
:101F10000001EB51FD6EEC51FE6EED51FF6EFA507B
:101F2000120095EF8FF048EC96F0120028EC98F034
:101F3000CEEC90F0E10E0E6EFF0E0F6E46EC97F0B9
:101F4000CEEC90F0C90E0E6EFF0E0F6E46EC97F0C1
:101F5000CEEC90F0BB0E0E6EFF0E0F6E46EC97F0BF
:101F6000CEEC90F0EE0E0E6EFF0E0F6E46EC97F07C
:101F7000CEEC90F0860E0E6EFF0E0F6E46EC97F0D4
:101F8000CEEC90F0340E0E6EFF0E0F6E46EC97F016
:101F9000CEEC90F0080E0E6EFF0E0F6E46EC97F032
:101FA000CEEC90F0E80E0E6EFF0E0F6E46EC97F042
:101FB000CEEC90F0B30EF66EFE0EF76E000EF86EDD
:101FC00002D8F0EF8FF00500FA6E0900F550FD6EB3
:101FD0000900F550FE6E0900F550FF6EFA50120030
:101FE000CEEC90F01200000E7F6E020E04EC98F022
:101FF000858A96EC8FF0000E086E040E076E7BEC5F
:1020000097F0FF0AD8A407EF90F009EF90F032EFB5
:1020100090F0000E086E040E076E010E096ED2ECF1
:1020200094F0A6EC97F0F3EC94F0000E0F6E000E17
:102030000E6E000E86EC8DF00EC080F00FC081F0A9
:1020400080C00BF081C00CF014EC97F0400E546E81
:10205000000E536E53C00BF054C00CF025EC97F0FB
:102060003EEF90F073EC96F009C080F00AC081F06A
:102070005EEC96F009C053F00AC054F030EC98F0D2
:1020800012000E01C09B6A0E076E1E0E086E010E36
:10209000096ECFEC97F00E01C0991E0E076E290E47
:1020A000086E010E096EC8EC97F0080E9E6E900E39
:1020B0009C6E240E9D6E8A0E9A6E000E9B6E680EAC
:1020C000076E300E086E010E096EDDEC97F0400EC3
:1020D000076E300E086E010E096ED6EC97F0460EB4
:1020E000076E300E086E010E096EE4EC97F0000EDC
:1020F00000018A6F000E586E000E576E080EFC6FBE
:10210000000E566E000E556E000E8B6F0E01C08BCA
:102110001200000EF2BE010E156E0DC079FF0EC04A
:102120007AFF0FC07BFF11C07CFF12C07DFFF29EC3
:102130007F8E550E816EAA0E816E80887FA8A3EFD8
:1021400090F0A5EF90F0AAEF90F0030E0001846FDD
:10215000C7EF90F00DC007F00EC008F00FC009F0F7
:1021600010C00AF09DEC96F007C013F008C014F000
:102170001150131809E112501418D8B4C2EF90F09E
:10218000C4EF90F0C7EF90F0010E0001846F7F9EC6
:1021900015B002D0F29E01D0F28E1200000E0B6E2E
:1021A000000E0A6EB30EF66EFE0EF76E000EF86E9F
:1021B00002D8E8EF90F00500FA6E0900F550FD6EC8
:1021C0000900F550FE6E0900F550FF6EFA5012003E
:1021D000086E000E0A24D96E010E0B20DA6E08C0BC
:1021E000DFFF0A0EDE18D8A4F8EF90F0FAEF90F0B7
:1021F000FCEF90F009EF91F00A4A0B2A0B5009E12D
:10220000640E0A5CD8A007EF91F009EF91F0D2EFCD
:1022100090F0FF0E0A24D96E000E0B20DA6E000E2D
:10222000DF6E1200000E866E000E856E000E826E4E
:10223000000E836E000E846E070E8B6E770E876E17
:102240008868FB0E896EDF0E8A6EDF0E0F01216F2C
:10225000D30E1C6F1469070E296F760E0C6F000EDB
:10226000206F000E286F000E136F000E0B6F000E14
:102270001B6F000E276F000E0A6F000E126F000E0C
:102280001A6F000E1F6F0969116919691E69070E1F
:10229000266F0869106918691D690F0E256F130EE6
:1022A0000E01B06F090EF46F12005BEF91F0074A58
:1022B000082A094A0A2A07C0D9FF08C0DAFFDF50F6
:1022C0000B6E09C0F6FF0AC0F7FF000EF86E08009B
:1022D000F5500B18D8A46FEF91F071EF91F07DEFEE
:1022E00091F007C0D9FF08C0DAFFDF50D8A47BEF18
:1022F00091F07DEF91F057EF91F007C0D9FF08C042
:10230000DAFFDF500B6E09C0F6FF0AC0F7FF000EC0
:10231000F86E0800F5500B5C076E086AD8A0080636
:102320001200600E0E6EFF0E0F6E46EC97F0DA0E86
:102330000001C66F000EC76FF60EC86FFF0EC96FA3
:10234000D6C0CAF0CB6B7EEC93F0DA0E0E6E000EA8
:102350000F6E46EC97F0DA0E0001C66F000EC76FE5
:10236000F60EC86FFF0EC96FD6C0D8F0D7C0D9F02F
:10237000D9C0D8F0D96BD851CA6FCB6B7EEC93F033
:10238000DA0E0E6E000E0F6E46EC97F0FB0E0E6E20
:10239000FF0E0F6E46EC97F01200000E535C420EDB
:1023A0005458D8A0D6EF91F0D8EF91F0DCEF91F02F
:1023B000400E546E000E536E53500009D8A4E3EF44
:1023C00091F0E5EF91F0EDEF91F053C007F054C0BC
:1023D00008F0096A0A6A35EC95F053C00DF054C054
:1023E0000EF00F6A106A16C011F017C012F089ECD7
:1023F00090F0020E5326000E542253C00BF054C02E
:102400000CF025EC97F01200000E0D6E010E0C6E14
:10241000ADC009F0FF0E0926092812EF92F0D890FE
:102420000C360D36E82E0FEF92F0000E0B6E000EFC
:102430000A6E2CEF92F007A020EF92F022EF92F0BC
:1024400026EF92F00C500A120D500B12D8900D325C
:102450000C32D8900832073207500810D8A433EF56
:1024600092F035EF92F01BEF92F00AC007F00BC02C
:1024700008F01200000E656E000E666E000E676EAC
:10248000000E686E000E636E000E646E200E616EAC
:10249000000E0F015A6F000E586F000E596F000E9C
:1024A000546F530E556F070E566F000E606E000E80
:1024B000536F030E516F3F0E526F840E5B6F000E11
:1024C000576F0E01C693BE836A0E076E300E086EFC
:1024D000010E096EEBEC97F01200C2C051F0C3C0C0
:1024E00052F0000E0001796F000E786F8BEF92F0C2
:1024F000C0C04BF0C1C04CF0510E4D6E000E4E6E80
:10250000C4C04FF0C5C050F0F4EC83F04B50000154
:1025100078274C50792351C0F6FF52C0F7FF000EC8
:10252000F86E0800F5500009D8A499EF92F09BEFDF
:1025300092F078EF92F078C0C0F079C0C1F012004C
:102540009F0E0F6EFF0E106E0DC011F00EC012F038
:102550000F5011261050122212500AE11A0E115C6F
:10256000D8A0B5EF92F0B8EF92F0010EB9EF92F06B
:10257000000E136E146A13501410D8B4C2EF92F008
:10258000C4EF92F0CAEF92F05F0E0D140D6E0E6A5A
:10259000CEEF92F00DC00DF00EC00EF01200076EDF
:1025A0000001FC51D8B4D7EF92F0D9EF92F0D0EF00
:1025B00092F00E01C0B9DFEF92F0E1EF92F0E5EF9B
:1025C00092F007C099FFFBEF92F0C099700E58246B
:1025D000D96EDA6A000EDA2207C0DFFF582A070E2A
:1025E0005864F5EF92F0F7EF92F0F9EF92F0000EE9
:1025F000586E0001FC070E01C089120000018B51CA
:10260000D8B405EF93F007EF93F0FEEF92F0600E71
:102610005524D96EDA6A000EDA22DF508A6F680E0E
:102620005524D96EDA6A000EDA22DF50076E552A79
:10263000070E55641EEF93F020EF93F022EF93F016
:10264000000E556E0E01C09B00018B070E01C08B62
:1026500007501200800E776E7868000E716E000EC3
:10266000726E810E0F014A6F000E466F000E456FAD
:10267000000E446F3F0E496F48694769000E4B6F6B
:10268000800E766E050E756E000E726E000E716E07
:1026900078380F0B076E07280001AC6F78500F0BCE
:1026A000076E0728AD6F1200000E076E0E01CCAF4B
:1026B0005CEF93F05EEF93F067EF93F0CCAD63EFD8
:1026C00093F065EF93F067EF93F0010E076E0750FC
:1026D000D8A46DEF93F070EF93F0010E71EF93F0CB
:1026E000000E086E0850D8B478EF93F07AEF93F0AC
:1026F0007CEF93F0CC9DCC9F08501200CA0E0001D5
:10270000CE6F000ECF6FC6C0D0F0C7C0D1F0000EA4
:10271000D36F000ED26F000ED56F000ED46FD00EA7
:10272000C06F000EC16FC8C0C2F0C9C0C3F0CE0EEA
:10273000C46F000EC56F6DEC92F00001D251C6253A
:10274000D96ED351C721DA6E000EDF6E1200010E72
:102750000D6E200E07180810D8B4B1EF93F0B3EF48
:1027600093F0CCEF93F0F70E096EFF0E0A6E07C0E0
:102770000BF008C00CF009500B260A500C220C502C
:1027800009E1050E0B5CD8A0C8EF93F0CAEF93F0F7
:10279000CCEF93F0000E0D6E0DC007F0086A12002A
:1027A00007C009F008C00AF0D8EF93F0074A082ADA
:1027B00007C0F6FF08C0F7FF000EF86E0E0EF764B4
:1027C00003D00800F55005D0F6CFE9FFF7CFEAFFB8
:1027D000EF500009D8A4EFEF93F0F1EF93F0D6EFAC
:1027E00093F00950075C076E0A500858086E1200F3
:1027F00001010B5150EC8CF0096E01010A5150ECB3
:102800008CF00A6E0A38F00B09100E6E390E0E6449
:102810000CEF94F00EEF94F016EF94F0C90E0E2426
:102820000C6E0D6AFF0E0D221CEF94F0D00E0E24DC
:102830000C6E0D6AFF0E0D220CC00BF00B50120037
:102840000101095150EC8CF0096E0101085150EC66
:102850008CF00A6E0A38F00B09100E6E390E0E64F9
:1028600034EF94F036EF94F03EEF94F0C90E0E245E
:102870000C6E0D6AFF0E0D2244EF94F0D00E0E2464
:102880000C6E0D6AFF0E0D220CC00BF00B501200E7
:10289000000ECF6E000ED06E040ED16EF00ECD6E17
:1028A000DD0ECC6E0E01C991CC50CDCF0AF00B6A73
:1028B0000AC00BF00A6A0A100001FA6F0B50FB6F96
:1028C0000E01C181640E076E300E086E010E096E96
:1028D000BAEC97F0310ECE6E1200000E186E000E9C
:1028E000176E7EEF94F016C009F00A6A14C00BF060
:1028F00015C00CF06DEC8EF0174A182A17501224F0
:10290000D96E18501320DA6EDF50166E1650D8A408
:102910008CEF94F08EEF94F073EF94F01200080EA9
:102920000001FC6196EF94F098EF94F0AEEF94F014
:10293000700E5724D96EDA6A000EDA22DF50996ED3
:10294000572A070E5764A7EF94F0A9EF94F0ABEF66
:1029500094F0000E576EFC2BB0EF94F00E01C0996E
:102960001200C8EF94F00BC0F6FF0CC0F7FF000E8A
:10297000F86E0E0EF76403D00800F55005D0F6CFC0
:10298000E9FFF7CFEAFFEF5018EC96F00B4A0C2A5C
:102990000D060D28D8A4CFEF94F0D1EF94F0B3EF4B
:1029A00094F01200000EF2BE010E0A6E310E7B6E24
:1029B00008507A6E07C079FF09C07CFF7F8EF29EB7
:1029C000550E816EAA0E816E808880B8EAEF94F071
:1029D000ECEF94F0E5EF94F00AB002D0F29E01D053
:1029E000F28E7F9E1200000E076E400E086E000EE3
:1029F000096E000E0A6EFF0E0B6E410E0C6E000E7D
:102A00000D6E000E0E6E36EC97F014EC98F054EC50
:102A100093F00009D8B40FEF95F011EF95F007EFA0
:102A200095F010EC98F012000E01C991FAC001F077
:102A3000FBC002F0DAEC96F00001E251E311E41180
:102A4000D8B425EF95F027EF95F034EF95F002D844
:102A500034EF95F00500FA6EE251FD6EE351FE6E23
:102A6000E451FF6EFA5012001200000EF2BE010E89
:102A70000B6E7F8E09C07BFF08C07AFF07C079FF0D
:102A8000F29ECC0E816E330E816E808C80BC4BEF3B
:102A900095F04DEF95F046EF95F00BB002D0F29E19
:102AA00001D0F28E7F9E12009F0E096EFF0E0A6EFD
:102AB000200E07100B6E000E08100C6E09500B262E
:102AC0000A500C220C500AE11A0E0B5CD8A06BEFD6
:102AD00095F06EEF95F0010E6FEF95F0000E076E1A
:102AE000086A1200EEEC96F0F28EF28C300E076E51
:102AF000300E086E010E096EC1EC97F0380E076EAD
:102B0000300E086E010E096EEBEC97F0F3EC8FF0CF
:102B100015EC82F088EF95F091EF00F09F0E096EB2
:102B2000FF0E0A6E07C00BF008C00CF009500B2610
:102B30000A500C220C500AE11A0E0B5CD8A0A3EF2D
:102B400095F0A6EF95F0010EA7EF95F0000E076E39
:102B5000086A1200BF0E096EFF0E0A6E07C00BF066
:102B600008C00CF009500B260A500C220C500AE148
:102B70001A0E0B5CD8A0BFEF95F0C2EF95F0010ED6
:102B8000C3EF95F0000E076E086A1200D00E096EB2
:102B9000FF0E0A6E07C00BF008C00CF009500B26A0
:102BA0000A500C220C500AE10A0E0B5CD8A0DBEF95
:102BB00095F0DEEF95F0010EDFEF95F0000E076E59
:102BC000086A12000E01C59B0001E551E611E711EC
:102BD000D8B4EDEF95F0EFEF95F0FCEF95F002D85B
:102BE000FCEF95F00500FA6EE551FD6EE651FE6EC4
:102BF000E751FF6EFA50120012000E01C693000159
:102C0000E851E911EA11D8B408EF96F00AEF96F00E
:102C100017EF96F002D817EF96F00500FA6EE8511C
:102C2000FD6EE951FE6EEA51FF6EFA50120012007D
:102C3000086EB60EF66EFE0EF76E000EF86E02D837
:102C400030EF96F00500FA6E0900F550FD6E0900B0
:102C5000F550FE6E0900F550FF6EFA500850120054
:102C6000120001EE00F0400EEE6AE806FDE100EE13
:102C700060F04F0EEE6AE806FDE1586A576A566A40
:102C8000556A546A536A59905992000172EF95F04F
:102C9000680E5624D96EDA6A000EDA2298CFDFFF6A
:102CA000562A070E566457EF96F059EF96F05BEFF1
:102CB00096F0000E566E00018B2B1200000E086E6F
:102CC000020E076E7BEC97F00D6E000E086E030E81
:102CD000076E7BEC97F00E6E0D500B6E0E50096E6A
:102CE0000BC00AF01200000E086E000E076E7BEC9F
:102CF00097F00D6E000E086E010E076E7BEC97F0DC
:102D00000E6E0D500B6E0E50096E0BC00AF01200C5
:102D1000000E076E400E086E000E096E000E0A6E61
:102D2000FF0E0B6E410E0C6E000E0D6E000E0E6E41
:102D300036EC97F014EC98F0120009C07BFF08C045
:102D40007AFF07C079FF808080B0A9EF96F0ABEFE3
:102D500096F0A4EF96F07D500B6E7C50076E0BC082
:102D600008F012004C0ED56EF30ED36E000ED26E2C
:102D70000E01C59BBD8B660E076E300E086E010EF0
:102D8000096EC1EC97F08F0ED46E1200CEA4CBEF7B
:102D900096F0CDEF96F0D5EF96F0CE900850CD6E30
:102DA00007C0CCFFCE80D9EF96F00850CD6E07C09B
:102DB000CCFF1200CEA4DFEF96F0E1EF96F0E9EF42
:102DC00096F0CE900250CD6E01C0CCFFCE80EDEFDC
:102DD00096F00250CD6E01C0CCFF120026EC98F0A8
:102DE00055EC97F012EC91F063EC97F02AEC93F02D
:102DF0003AEC92F048EC94F0B2EC96F041EC90F0A2
:102E0000120007500902F3CF0BF0F4CF0CF007507B
:102E10000A02F3500C2608500902F3500C260BC08E
:102E200007F00CC008F01200000E086E000E076ECE
:102E30000C50096ED2EC94F0000E086E010E076E75
:102E40000BC009F0D2EC94F01200000E086E020ED6
:102E5000076E0C50096ED2EC94F0000E086E030E53
:102E6000076E0BC009F0D2EC94F012000D503F0B2E
:102E70000F01496F0CC048FF0BC047FF09503F0BC3
:102E8000466F08C045FF07C044FF12000EC00BF09C
:102E90000FC00CF00EC007F00FC008F0D0EC93F09C
:102EA00007500D6EB1EC94F01200000E0E01DC6FB5
:102EB000000EDD6F000EDE6F000EDF6F000EE06FA4
:102EC000000EE16F1200600E0E01D36F000ED56F81
:102ED000000ED76F080ED96F000ED86F12000001D8
:102EE0008B51D8A476EF97F079EF97F0010E7AEF37
:102EF00097F0000E1200310E7B6E08507A6E07C0FC
:102F000079FF808000F000F07C50120020EC94F0FB
:102F1000116EF8EC93F0126E11C00FF012C010F0A9
:102F200012000F015F510A6E096A5E510924076E93
:102F3000000E0A20086E1200000E716E000E726EF6
:102F40000F014A51FC0B02094A6F1200000E716E0C
:102F5000000E726E0F014A51FC0B01094A6F1200FC
:102F60006E500A6E096A6D500924076E000E0A2021
:102F7000086E120007C0E2F008C0E3F009C0E4F0F8
:102F8000120007C0E5F008C0E6F009C0E7F0120043
:102F900007C0F7F008C0F8F009C0F9F0120007C048
:102FA000F4F008C0F5F009C0F6F0120007C0EEF02A
:102FB00008C0EFF009C0F0F0120007C0F1F008C03F
:102FC000F2F009C0F3F0120007C0EBF008C0ECF01B
:102FD00009C0EDF0120007C0E8F008C0E9F009C030
:102FE000EAF01200FAC007F0FBC008F0C6EC96F059
:102FF00012000F015551F80B0309556F1200086EAE
:103000000850CFEC92F01200076E07C05AFF120072
:10301000F80E0F0155171200076E07C0D2FF1200FD
:103020000F014A9D779C1200778C0F014A8D120088
:10303000010E0001856F1200010E0001886F120061
:103040009C989C88120048EC96F01200F29A1200AC
:10305000828E1200CE901200CE801200D49E1200FA
:0C306000D48E12001200120012001200A8
:020000040020DA
:10000000FFFFFFFFFFFFFFFFFFFFFFFFFFFFFFFF00
:10001000FFFFFFFFFFFFFFFFFFFFFFFFFFFFFFFFF0
:10002000FFFFFFFFFFFFFFFFFFFFFFFFFFFFFFFFE0
:10003000FFFFFFFFFFFFFFFFFFFFFFFFFFFFFFFFD0
:10004000FFFFFFFFFFFFFFFFFFFFFFFFFFFFFFFFC0
:10005000FFFFFFFFFFFFFFFFFFFFFFFFFFFFFFFFB0
:10006000FFFFFFFFFFFFFFFFFFFFFFFFFFFFFFFFA0
:10007000FFFFFFFFFFFFFFFFFFFFFFFFFFFFFFFF90
:10008000FFFFFFFFFFFFFFFFFFFFFFFFFFFFFFFF80
:10009000FFFFFFFFFFFFFFFFFFFFFFFFFFFFFFFF70
:1000A000FFFFFFFFFFFFFFFFFFFFFFFFFFFFFFFF60
:1000B000FFFFFFFFFFFFFFFFFFFFFFFFFFFFFFFF50
:1000C000FFFFFFFFFFFFFFFFFFFFFFFFFFFFFFFF40
:1000D000FFFFFFFFFFFFFFFFFFFFFFFFFFFFFFFF30
:1000E000FFFFFFFFFFFFFFFFFFFFFFFFFFFFFFFF20
:1000F000FFFFFFFFFFFFFFFFFFFFFFFFFFFFFFFF10
:020000040030CA
:0C0000008CFFFFFF9FFFFFFFFFFFFFFFD3
:00000001FF
